{
  "_format": "hh-sol-artifact-1",
  "contractName": "EMS",
  "sourceName": "contracts/EMS.sol",
  "abi": [
    {
      "inputs": [],
      "stateMutability": "nonpayable",
      "type": "constructor"
    },
    {
      "inputs": [
        {
          "internalType": "address",
          "name": "owner",
          "type": "address"
        }
      ],
      "name": "OwnableInvalidOwner",
      "type": "error"
    },
    {
      "inputs": [
        {
          "internalType": "address",
          "name": "account",
          "type": "address"
        }
      ],
      "name": "OwnableUnauthorizedAccount",
      "type": "error"
    },
    {
      "anonymous": false,
      "inputs": [
        {
          "indexed": true,
          "internalType": "address",
          "name": "auditor",
          "type": "address"
        },
        {
          "indexed": false,
          "internalType": "bool",
          "name": "status",
          "type": "bool"
        }
      ],
      "name": "AuditorUpdated",
      "type": "event"
    },
    {
      "anonymous": false,
      "inputs": [
        {
          "indexed": true,
          "internalType": "uint256",
          "name": "caseId",
          "type": "uint256"
        },
        {
          "indexed": false,
          "internalType": "string",
          "name": "courtId",
          "type": "string"
        },
        {
          "indexed": false,
          "internalType": "string",
          "name": "caseDescription",
          "type": "string"
        },
        {
          "indexed": false,
          "internalType": "string",
          "name": "startDateTime",
          "type": "string"
        }
      ],
      "name": "CaseRegistered",
      "type": "event"
    },
    {
      "anonymous": false,
      "inputs": [
        {
          "indexed": true,
          "internalType": "uint256",
          "name": "caseId",
          "type": "uint256"
        },
        {
          "indexed": true,
          "internalType": "uint256",
          "name": "evidenceId",
          "type": "uint256"
        },
        {
          "indexed": false,
          "internalType": "string",
          "name": "description",
          "type": "string"
        },
        {
          "indexed": false,
          "internalType": "address",
          "name": "owner",
          "type": "address"
        },
        {
          "indexed": false,
          "internalType": "uint256",
          "name": "timestamp",
          "type": "uint256"
        },
        {
          "indexed": false,
          "internalType": "string",
          "name": "createdDateTime",
          "type": "string"
        }
      ],
      "name": "EvidenceRegistered",
      "type": "event"
    },
    {
      "anonymous": false,
      "inputs": [
        {
          "indexed": true,
          "internalType": "address",
          "name": "previousOwner",
          "type": "address"
        },
        {
          "indexed": true,
          "internalType": "address",
          "name": "newOwner",
          "type": "address"
        }
      ],
      "name": "OwnershipTransferred",
      "type": "event"
    },
    {
      "anonymous": false,
      "inputs": [
        {
          "indexed": true,
          "internalType": "address",
          "name": "auditor",
          "type": "address"
        },
        {
          "indexed": false,
          "internalType": "bool",
          "name": "status",
          "type": "bool"
        }
      ],
      "name": "WhitelistedUsersUpdated",
      "type": "event"
    },
    {
      "inputs": [
        {
          "internalType": "uint256",
          "name": "",
          "type": "uint256"
        }
      ],
      "name": "cases",
      "outputs": [
        {
          "internalType": "string",
          "name": "courtId",
          "type": "string"
        },
        {
          "internalType": "string",
          "name": "caseDescription",
          "type": "string"
        },
        {
          "internalType": "uint256",
          "name": "totalEvidences",
          "type": "uint256"
        },
        {
          "internalType": "string",
          "name": "startDateTime",
          "type": "string"
        },
        {
          "internalType": "bool",
          "name": "initialised",
          "type": "bool"
        }
      ],
      "stateMutability": "view",
      "type": "function"
    },
    {
      "inputs": [
        {
          "internalType": "uint256",
          "name": "",
          "type": "uint256"
        },
        {
          "internalType": "uint256",
          "name": "",
          "type": "uint256"
        }
      ],
      "name": "evidences",
      "outputs": [
        {
          "internalType": "string",
          "name": "description",
          "type": "string"
        },
        {
          "internalType": "address",
          "name": "owner",
          "type": "address"
        },
        {
          "internalType": "uint256",
          "name": "timestamp",
          "type": "uint256"
        },
        {
          "internalType": "string",
          "name": "createdDateTime",
          "type": "string"
        }
      ],
      "stateMutability": "view",
      "type": "function"
    },
    {
      "inputs": [
        {
          "internalType": "address",
          "name": "_auditor",
          "type": "address"
        }
      ],
      "name": "isAuditor",
      "outputs": [
        {
          "internalType": "bool",
          "name": "",
          "type": "bool"
        }
      ],
      "stateMutability": "view",
      "type": "function"
    },
    {
      "inputs": [
        {
          "internalType": "address",
          "name": "_auditor",
          "type": "address"
        }
      ],
      "name": "isWhiteListedUsers",
      "outputs": [
        {
          "internalType": "bool",
          "name": "",
          "type": "bool"
        }
      ],
      "stateMutability": "view",
      "type": "function"
    },
    {
      "inputs": [],
      "name": "owner",
      "outputs": [
        {
          "internalType": "address",
          "name": "",
          "type": "address"
        }
      ],
      "stateMutability": "view",
      "type": "function"
    },
    {
      "inputs": [
        {
          "internalType": "uint256",
          "name": "_caseID",
          "type": "uint256"
        },
        {
          "internalType": "uint256",
          "name": "_evidenceID",
          "type": "uint256"
        }
      ],
      "name": "redeemEvidenceDetails",
      "outputs": [
        {
          "internalType": "string",
          "name": "description",
          "type": "string"
        },
        {
          "internalType": "address",
          "name": "owner",
          "type": "address"
        },
        {
          "internalType": "uint256",
          "name": "timestamp",
          "type": "uint256"
        },
        {
          "internalType": "string",
          "name": "createdDateTime",
          "type": "string"
        }
      ],
      "stateMutability": "view",
      "type": "function"
    },
    {
      "inputs": [
        {
          "internalType": "string",
          "name": "_courtId",
          "type": "string"
        },
        {
          "internalType": "string",
          "name": "_caseDescription",
          "type": "string"
        },
        {
          "internalType": "string",
          "name": "_startDateTime",
          "type": "string"
        }
      ],
      "name": "registerCase",
      "outputs": [],
      "stateMutability": "nonpayable",
      "type": "function"
    },
    {
      "inputs": [
        {
          "internalType": "uint256",
          "name": "_caseId",
          "type": "uint256"
        },
        {
          "internalType": "string",
          "name": "_description",
          "type": "string"
        },
        {
          "internalType": "string",
          "name": "_createdDateTime",
          "type": "string"
        }
      ],
      "name": "registerEvidence",
      "outputs": [],
      "stateMutability": "nonpayable",
      "type": "function"
    },
    {
      "inputs": [],
      "name": "renounceOwnership",
      "outputs": [],
      "stateMutability": "nonpayable",
      "type": "function"
    },
    {
      "inputs": [
        {
          "internalType": "address",
          "name": "_auditor",
          "type": "address"
        },
        {
          "internalType": "bool",
          "name": "_status",
          "type": "bool"
        }
      ],
      "name": "setAuditor",
      "outputs": [],
      "stateMutability": "nonpayable",
      "type": "function"
    },
    {
      "inputs": [
        {
          "internalType": "address",
          "name": "_auditor",
          "type": "address"
        },
        {
          "internalType": "bool",
          "name": "_status",
          "type": "bool"
        }
      ],
      "name": "setWhiteListedUsers",
      "outputs": [],
      "stateMutability": "nonpayable",
      "type": "function"
    },
    {
      "inputs": [],
      "name": "totalCases",
      "outputs": [
        {
          "internalType": "uint256",
          "name": "",
          "type": "uint256"
        }
      ],
      "stateMutability": "view",
      "type": "function"
    },
    {
      "inputs": [
        {
          "internalType": "address",
          "name": "newOwner",
          "type": "address"
        }
      ],
      "name": "transferOwnership",
      "outputs": [],
      "stateMutability": "nonpayable",
      "type": "function"
    }
  ],
  "bytecode": "0x608060405233600160006101000a81548173ffffffffffffffffffffffffffffffffffffffff021916908373ffffffffffffffffffffffffffffffffffffffff160217905550600060045534801561005657600080fd5b50600160009054906101000a900473ffffffffffffffffffffffffffffffffffffffff16600073ffffffffffffffffffffffffffffffffffffffff168173ffffffffffffffffffffffffffffffffffffffff16036100ec5760006040517f1e4fbdf70000000000000000000000000000000000000000000000000000000081526004016100e39190610206565b60405180910390fd5b6100fb8161010160201b60201c565b50610221565b60008060009054906101000a900473ffffffffffffffffffffffffffffffffffffffff169050816000806101000a81548173ffffffffffffffffffffffffffffffffffffffff021916908373ffffffffffffffffffffffffffffffffffffffff1602179055508173ffffffffffffffffffffffffffffffffffffffff168173ffffffffffffffffffffffffffffffffffffffff167f8be0079c531659141344cd1fd0a4f28419497f9722a3daafe3b4186f6b6457e060405160405180910390a35050565b600073ffffffffffffffffffffffffffffffffffffffff82169050919050565b60006101f0826101c5565b9050919050565b610200816101e5565b82525050565b600060208201905061021b60008301846101f7565b92915050565b611ffb806102306000396000f3fe608060405234801561001057600080fd5b50600436106100cf5760003560e01c80639197a74a1161008c578063bde7e0d711610066578063bde7e0d7146101ed578063d55cdecb14610220578063f09790dd14610250578063f2fde38b14610284576100cf565b80639197a74a146101825780639b33e3b41461019e578063ac663cbc146101d1576100cf565b80630dc265c8146100d457806349b90557146100f05780634ce5162f14610120578063715018a61461013e5780637795024f146101485780638da5cb5b14610164575b600080fd5b6100ee60048036038101906100e9919061130a565b6102a0565b005b61010a6004803603810190610105919061140f565b6104ca565b6040516101179190611457565b60405180910390f35b610128610520565b604051610135919061148b565b60405180910390f35b610146610526565b005b610162600480360381019061015d91906114d2565b61053a565b005b61016c6105eb565b6040516101799190611521565b60405180910390f35b61019c60048036038101906101979190611568565b610614565b005b6101b860048036038101906101b391906115f3565b61091d565b6040516101c894939291906116b2565b60405180910390f35b6101eb60048036038101906101e691906114d2565b610a8a565b005b610207600480360381019061020291906115f3565b610b3b565b60405161021794939291906116b2565b60405180910390f35b61023a6004803603810190610235919061140f565b610da6565b6040516102479190611457565b60405180910390f35b61026a60048036038101906102659190611705565b610dfc565b60405161027b959493929190611732565b60405180910390f35b61029e6004803603810190610299919061140f565b610fd7565b005b600260003373ffffffffffffffffffffffffffffffffffffffff1673ffffffffffffffffffffffffffffffffffffffff16815260200190815260200160002060009054906101000a900460ff1661032c576040517f08c379a0000000000000000000000000000000000000000000000000000000008152600401610323906117e6565b60405180910390fd5b6000835111610370576040517f08c379a000000000000000000000000000000000000000000000000000000000815260040161036790611852565b60405180910390fd5b60008251116103b4576040517f08c379a00000000000000000000000000000000000000000000000000000000081526004016103ab906118e4565b60405180910390fd5b60008151116103f8576040517f08c379a00000000000000000000000000000000000000000000000000000000081526004016103ef90611976565b60405180910390fd5b6004600081548092919061040b906119c5565b9190505550600060056000600454815260200190815260200160002090508381600001908161043a9190611c19565b508281600101908161044c9190611c19565b5060008160020181905550818160030190816104689190611c19565b5060018160040160006101000a81548160ff0219169083151502179055506004547fcbdda8222ebf9762618cdde4d916b47ea3bbb6078845e7b4a473967941b20c148585856040516104bc93929190611ceb565b60405180910390a250505050565b6000600260008373ffffffffffffffffffffffffffffffffffffffff1673ffffffffffffffffffffffffffffffffffffffff16815260200190815260200160002060009054906101000a900460ff169050919050565b60045481565b61052e61105d565b61053860006110e4565b565b61054261105d565b80600260008473ffffffffffffffffffffffffffffffffffffffff1673ffffffffffffffffffffffffffffffffffffffff16815260200190815260200160002060006101000a81548160ff0219169083151502179055508173ffffffffffffffffffffffffffffffffffffffff167f586ddd46d982976bec1e4d9a834af85e45533be873df97fdba8c75e9e2f65672826040516105df9190611457565b60405180910390a25050565b60008060009054906101000a900473ffffffffffffffffffffffffffffffffffffffff16905090565b600260003373ffffffffffffffffffffffffffffffffffffffff1673ffffffffffffffffffffffffffffffffffffffff16815260200190815260200160002060009054906101000a900460ff166106a0576040517f08c379a0000000000000000000000000000000000000000000000000000000008152600401610697906117e6565b60405180910390fd5b6000831180156106b257506004548311155b6106f1576040517f08c379a00000000000000000000000000000000000000000000000000000000081526004016106e890611d83565b60405180910390fd5b6000825111610735576040517f08c379a000000000000000000000000000000000000000000000000000000000815260040161072c90611e15565b60405180910390fd5b6000815111610779576040517f08c379a000000000000000000000000000000000000000000000000000000000815260040161077090611ea7565b60405180910390fd5b60006005600085815260200190815260200160002090508060040160009054906101000a900460ff166107e1576040517f08c379a00000000000000000000000000000000000000000000000000000000081526004016107d890611f13565b60405180910390fd5b600081600201600081546107f4906119c5565b919050819055905060405180608001604052808581526020013373ffffffffffffffffffffffffffffffffffffffff16815260200142815260200184815250600660008781526020019081526020016000206000838152602001908152602001600020600082015181600001908161086c9190611c19565b5060208201518160010160006101000a81548173ffffffffffffffffffffffffffffffffffffffff021916908373ffffffffffffffffffffffffffffffffffffffff1602179055506040820151816002015560608201518160030190816108d39190611c19565b5090505080857fb13d15fc028b7de62ab86880b011c0a1e2782475e7893700b561a5275c64797e8633428860405161090e94939291906116b2565b60405180910390a35050505050565b60066020528160005260406000206020528060005260406000206000915091505080600001805461094d90611a3c565b80601f016020809104026020016040519081016040528092919081815260200182805461097990611a3c565b80156109c65780601f1061099b576101008083540402835291602001916109c6565b820191906000526020600020905b8154815290600101906020018083116109a957829003601f168201915b5050505050908060010160009054906101000a900473ffffffffffffffffffffffffffffffffffffffff1690806002015490806003018054610a0790611a3c565b80601f0160208091040260200160405190810160405280929190818152602001828054610a3390611a3c565b8015610a805780601f10610a5557610100808354040283529160200191610a80565b820191906000526020600020905b815481529060010190602001808311610a6357829003601f168201915b5050505050905084565b610a9261105d565b80600360008473ffffffffffffffffffffffffffffffffffffffff1673ffffffffffffffffffffffffffffffffffffffff16815260200190815260200160002060006101000a81548160ff0219169083151502179055508173ffffffffffffffffffffffffffffffffffffffff167f0b25bb942d31d8a4f48edbf2605e468fbbea5fbe79735685b8c04a3bcb0409c882604051610b2f9190611457565b60405180910390a25050565b60606000806060600260003373ffffffffffffffffffffffffffffffffffffffff1673ffffffffffffffffffffffffffffffffffffffff16815260200190815260200160002060009054906101000a900460ff1680610be35750600360003373ffffffffffffffffffffffffffffffffffffffff1673ffffffffffffffffffffffffffffffffffffffff16815260200190815260200160002060009054906101000a900460ff165b610c22576040517f08c379a0000000000000000000000000000000000000000000000000000000008152600401610c1990611fa5565b60405180910390fd5b60006006600088815260200190815260200160002060008781526020019081526020016000209050806000018160010160009054906101000a900473ffffffffffffffffffffffffffffffffffffffff16826002015483600301838054610c8890611a3c565b80601f0160208091040260200160405190810160405280929190818152602001828054610cb490611a3c565b8015610d015780601f10610cd657610100808354040283529160200191610d01565b820191906000526020600020905b815481529060010190602001808311610ce457829003601f168201915b50505050509350808054610d1490611a3c565b80601f0160208091040260200160405190810160405280929190818152602001828054610d4090611a3c565b8015610d8d5780601f10610d6257610100808354040283529160200191610d8d565b820191906000526020600020905b815481529060010190602001808311610d7057829003601f168201915b5050505050905094509450945094505092959194509250565b6000600360008373ffffffffffffffffffffffffffffffffffffffff1673ffffffffffffffffffffffffffffffffffffffff16815260200190815260200160002060009054906101000a900460ff169050919050565b6005602052806000526040600020600091509050806000018054610e1f90611a3c565b80601f0160208091040260200160405190810160405280929190818152602001828054610e4b90611a3c565b8015610e985780601f10610e6d57610100808354040283529160200191610e98565b820191906000526020600020905b815481529060010190602001808311610e7b57829003601f168201915b505050505090806001018054610ead90611a3c565b80601f0160208091040260200160405190810160405280929190818152602001828054610ed990611a3c565b8015610f265780601f10610efb57610100808354040283529160200191610f26565b820191906000526020600020905b815481529060010190602001808311610f0957829003601f168201915b505050505090806002015490806003018054610f4190611a3c565b80601f0160208091040260200160405190810160405280929190818152602001828054610f6d90611a3c565b8015610fba5780601f10610f8f57610100808354040283529160200191610fba565b820191906000526020600020905b815481529060010190602001808311610f9d57829003601f168201915b5050505050908060040160009054906101000a900460ff16905085565b610fdf61105d565b600073ffffffffffffffffffffffffffffffffffffffff168173ffffffffffffffffffffffffffffffffffffffff16036110515760006040517f1e4fbdf70000000000000000000000000000000000000000000000000000000081526004016110489190611521565b60405180910390fd5b61105a816110e4565b50565b6110656111a8565b73ffffffffffffffffffffffffffffffffffffffff166110836105eb565b73ffffffffffffffffffffffffffffffffffffffff16146110e2576110a66111a8565b6040517f118cdaa70000000000000000000000000000000000000000000000000000000081526004016110d99190611521565b60405180910390fd5b565b60008060009054906101000a900473ffffffffffffffffffffffffffffffffffffffff169050816000806101000a81548173ffffffffffffffffffffffffffffffffffffffff021916908373ffffffffffffffffffffffffffffffffffffffff1602179055508173ffffffffffffffffffffffffffffffffffffffff168173ffffffffffffffffffffffffffffffffffffffff167f8be0079c531659141344cd1fd0a4f28419497f9722a3daafe3b4186f6b6457e060405160405180910390a35050565b600033905090565b6000604051905090565b600080fd5b600080fd5b600080fd5b600080fd5b6000601f19601f8301169050919050565b7f4e487b7100000000000000000000000000000000000000000000000000000000600052604160045260246000fd5b611217826111ce565b810181811067ffffffffffffffff82111715611236576112356111df565b5b80604052505050565b60006112496111b0565b9050611255828261120e565b919050565b600067ffffffffffffffff821115611275576112746111df565b5b61127e826111ce565b9050602081019050919050565b82818337600083830152505050565b60006112ad6112a88461125a565b61123f565b9050828152602081018484840111156112c9576112c86111c9565b5b6112d484828561128b565b509392505050565b600082601f8301126112f1576112f06111c4565b5b813561130184826020860161129a565b91505092915050565b600080600060608486031215611323576113226111ba565b5b600084013567ffffffffffffffff811115611341576113406111bf565b5b61134d868287016112dc565b935050602084013567ffffffffffffffff81111561136e5761136d6111bf565b5b61137a868287016112dc565b925050604084013567ffffffffffffffff81111561139b5761139a6111bf565b5b6113a7868287016112dc565b9150509250925092565b600073ffffffffffffffffffffffffffffffffffffffff82169050919050565b60006113dc826113b1565b9050919050565b6113ec816113d1565b81146113f757600080fd5b50565b600081359050611409816113e3565b92915050565b600060208284031215611425576114246111ba565b5b6000611433848285016113fa565b91505092915050565b60008115159050919050565b6114518161143c565b82525050565b600060208201905061146c6000830184611448565b92915050565b6000819050919050565b61148581611472565b82525050565b60006020820190506114a0600083018461147c565b92915050565b6114af8161143c565b81146114ba57600080fd5b50565b6000813590506114cc816114a6565b92915050565b600080604083850312156114e9576114e86111ba565b5b60006114f7858286016113fa565b9250506020611508858286016114bd565b9150509250929050565b61151b816113d1565b82525050565b60006020820190506115366000830184611512565b92915050565b61154581611472565b811461155057600080fd5b50565b6000813590506115628161153c565b92915050565b600080600060608486031215611581576115806111ba565b5b600061158f86828701611553565b935050602084013567ffffffffffffffff8111156115b0576115af6111bf565b5b6115bc868287016112dc565b925050604084013567ffffffffffffffff8111156115dd576115dc6111bf565b5b6115e9868287016112dc565b9150509250925092565b6000806040838503121561160a576116096111ba565b5b600061161885828601611553565b925050602061162985828601611553565b9150509250929050565b600081519050919050565b600082825260208201905092915050565b60005b8381101561166d578082015181840152602081019050611652565b60008484015250505050565b600061168482611633565b61168e818561163e565b935061169e81856020860161164f565b6116a7816111ce565b840191505092915050565b600060808201905081810360008301526116cc8187611679565b90506116db6020830186611512565b6116e8604083018561147c565b81810360608301526116fa8184611679565b905095945050505050565b60006020828403121561171b5761171a6111ba565b5b600061172984828501611553565b91505092915050565b600060a082019050818103600083015261174c8188611679565b905081810360208301526117608187611679565b905061176f604083018661147c565b81810360608301526117818185611679565b90506117906080830184611448565b9695505050505050565b7f4572726f723a2043616c6c6572206973206e6f7420616e2061756469746f7200600082015250565b60006117d0601f8361163e565b91506117db8261179a565b602082019050919050565b600060208201905081810360008301526117ff816117c3565b9050919050565b7f4572726f723a20436f7572742049442063616e6e6f7420626520656d70747900600082015250565b600061183c601f8361163e565b915061184782611806565b602082019050919050565b6000602082019050818103600083015261186b8161182f565b9050919050565b7f4572726f723a2043617365206465736372697074696f6e2063616e6e6f74206260008201527f6520656d70747900000000000000000000000000000000000000000000000000602082015250565b60006118ce60278361163e565b91506118d982611872565b604082019050919050565b600060208201905081810360008301526118fd816118c1565b9050919050565b7f4572726f723a20537461727420646174652f74696d652063616e6e6f7420626560008201527f20656d7074790000000000000000000000000000000000000000000000000000602082015250565b600061196060268361163e565b915061196b82611904565b604082019050919050565b6000602082019050818103600083015261198f81611953565b9050919050565b7f4e487b7100000000000000000000000000000000000000000000000000000000600052601160045260246000fd5b60006119d082611472565b91507fffffffffffffffffffffffffffffffffffffffffffffffffffffffffffffffff8203611a0257611a01611996565b5b600182019050919050565b7f4e487b7100000000000000000000000000000000000000000000000000000000600052602260045260246000fd5b60006002820490506001821680611a5457607f821691505b602082108103611a6757611a66611a0d565b5b50919050565b60008190508160005260206000209050919050565b60006020601f8301049050919050565b600082821b905092915050565b600060088302611acf7fffffffffffffffffffffffffffffffffffffffffffffffffffffffffffffffff82611a92565b611ad98683611a92565b95508019841693508086168417925050509392505050565b6000819050919050565b6000611b16611b11611b0c84611472565b611af1565b611472565b9050919050565b6000819050919050565b611b3083611afb565b611b44611b3c82611b1d565b848454611a9f565b825550505050565b600090565b611b59611b4c565b611b64818484611b27565b505050565b5b81811015611b8857611b7d600082611b51565b600181019050611b6a565b5050565b601f821115611bcd57611b9e81611a6d565b611ba784611a82565b81016020851015611bb6578190505b611bca611bc285611a82565b830182611b69565b50505b505050565b600082821c905092915050565b6000611bf060001984600802611bd2565b1980831691505092915050565b6000611c098383611bdf565b9150826002028217905092915050565b611c2282611633565b67ffffffffffffffff811115611c3b57611c3a6111df565b5b611c458254611a3c565b611c50828285611b8c565b600060209050601f831160018114611c835760008415611c71578287015190505b611c7b8582611bfd565b865550611ce3565b601f198416611c9186611a6d565b60005b82811015611cb957848901518255600182019150602085019450602081019050611c94565b86831015611cd65784890151611cd2601f891682611bdf565b8355505b6001600288020188555050505b505050505050565b60006060820190508181036000830152611d058186611679565b90508181036020830152611d198185611679565b90508181036040830152611d2d8184611679565b9050949350505050565b7f4572726f723a20496e76616c6964206361736520494400000000000000000000600082015250565b6000611d6d60168361163e565b9150611d7882611d37565b602082019050919050565b60006020820190508181036000830152611d9c81611d60565b9050919050565b7f4572726f723a204465736372697074696f6e2063616e6e6f7420626520656d7060008201527f7479000000000000000000000000000000000000000000000000000000000000602082015250565b6000611dff60228361163e565b9150611e0a82611da3565b604082019050919050565b60006020820190508181036000830152611e2e81611df2565b9050919050565b7f4572726f723a204372656174656420646174652f74696d652063616e6e6f742060008201527f626520656d707479000000000000000000000000000000000000000000000000602082015250565b6000611e9160288361163e565b9150611e9c82611e35565b604082019050919050565b60006020820190508181036000830152611ec081611e84565b9050919050565b7f4572726f723a204361736520646f6573206e6f74206578697374000000000000600082015250565b6000611efd601a8361163e565b9150611f0882611ec7565b602082019050919050565b60006020820190508181036000830152611f2c81611ef0565b9050919050565b7f4572726f723a2043616c6c6572206973206e6569746865722061756469746f7260008201527f206e6f722077686974656c697374656420757365720000000000000000000000602082015250565b6000611f8f60358361163e565b9150611f9a82611f33565b604082019050919050565b60006020820190508181036000830152611fbe81611f82565b905091905056fea26469706673582212208131e24a0f2b353b08b7f94275e28b36d3a917c6dc6ff72e8fd40d98a758ffef64736f6c634300081c0033",
  "linkReferences": {},
  "deployedLinkReferences": {}
}